{
  "_format": "hh-sol-artifact-1",
  "contractName": "VendingMachine3",
  "sourceName": "contracts/VendingMachine3.sol",
  "abi": [
    {
      "inputs": [],
      "stateMutability": "nonpayable",
      "type": "constructor"
    },
    {
      "anonymous": false,
      "inputs": [
        {
          "indexed": true,
          "internalType": "address",
          "name": "previousOwner",
          "type": "address"
        },
        {
          "indexed": true,
          "internalType": "address",
          "name": "newOwner",
          "type": "address"
        }
      ],
      "name": "OwnershipTransferred",
      "type": "event"
    },
    {
      "inputs": [
        {
          "internalType": "address",
          "name": "",
          "type": "address"
        }
      ],
      "name": "Balances",
      "outputs": [
        {
          "internalType": "uint256",
          "name": "Lays",
          "type": "uint256"
        },
        {
          "internalType": "uint256",
          "name": "Pizza",
          "type": "uint256"
        },
        {
          "internalType": "uint256",
          "name": "Donut",
          "type": "uint256"
        },
        {
          "internalType": "uint256",
          "name": "Drinks",
          "type": "uint256"
        }
      ],
      "stateMutability": "view",
      "type": "function"
    },
    {
      "inputs": [
        {
          "internalType": "uint256",
          "name": "amount",
          "type": "uint256"
        }
      ],
      "name": "PurchaseDonuts",
      "outputs": [],
      "stateMutability": "payable",
      "type": "function"
    },
    {
      "inputs": [
        {
          "internalType": "uint256",
          "name": "amount",
          "type": "uint256"
        }
      ],
      "name": "PurchaseDrinks",
      "outputs": [],
      "stateMutability": "payable",
      "type": "function"
    },
    {
      "inputs": [
        {
          "internalType": "uint256",
          "name": "amount",
          "type": "uint256"
        }
      ],
      "name": "PurchaseLays",
      "outputs": [],
      "stateMutability": "payable",
      "type": "function"
    },
    {
      "inputs": [
        {
          "internalType": "uint256",
          "name": "amount",
          "type": "uint256"
        }
      ],
      "name": "PurchasePizza",
      "outputs": [],
      "stateMutability": "payable",
      "type": "function"
    },
    {
      "inputs": [],
      "name": "__owner",
      "outputs": [
        {
          "internalType": "address",
          "name": "",
          "type": "address"
        }
      ],
      "stateMutability": "view",
      "type": "function"
    },
    {
      "inputs": [],
      "name": "getDonutBalance",
      "outputs": [
        {
          "internalType": "uint256",
          "name": "",
          "type": "uint256"
        }
      ],
      "stateMutability": "view",
      "type": "function"
    },
    {
      "inputs": [],
      "name": "getDrinksBalance",
      "outputs": [
        {
          "internalType": "uint256",
          "name": "",
          "type": "uint256"
        }
      ],
      "stateMutability": "view",
      "type": "function"
    },
    {
      "inputs": [],
      "name": "getLaysBalance",
      "outputs": [
        {
          "internalType": "uint256",
          "name": "",
          "type": "uint256"
        }
      ],
      "stateMutability": "view",
      "type": "function"
    },
    {
      "inputs": [],
      "name": "getPizzaBalance",
      "outputs": [
        {
          "internalType": "uint256",
          "name": "",
          "type": "uint256"
        }
      ],
      "stateMutability": "view",
      "type": "function"
    },
    {
      "inputs": [
        {
          "internalType": "uint256",
          "name": "PriceOfItemYouAreBuying",
          "type": "uint256"
        }
      ],
      "name": "getPriceForOnePiece",
      "outputs": [
        {
          "internalType": "uint256",
          "name": "",
          "type": "uint256"
        }
      ],
      "stateMutability": "view",
      "type": "function"
    },
    {
      "inputs": [],
      "name": "owner",
      "outputs": [
        {
          "internalType": "address",
          "name": "",
          "type": "address"
        }
      ],
      "stateMutability": "view",
      "type": "function"
    },
    {
      "inputs": [],
      "name": "pause",
      "outputs": [],
      "stateMutability": "nonpayable",
      "type": "function"
    },
    {
      "inputs": [],
      "name": "renounceOwnership",
      "outputs": [],
      "stateMutability": "nonpayable",
      "type": "function"
    },
    {
      "inputs": [
        {
          "internalType": "uint256",
          "name": "value",
          "type": "uint256"
        }
      ],
      "name": "restockDonut",
      "outputs": [],
      "stateMutability": "nonpayable",
      "type": "function"
    },
    {
      "inputs": [
        {
          "internalType": "uint256",
          "name": "value",
          "type": "uint256"
        }
      ],
      "name": "restockDrinks",
      "outputs": [],
      "stateMutability": "nonpayable",
      "type": "function"
    },
    {
      "inputs": [
        {
          "internalType": "uint256",
          "name": "value",
          "type": "uint256"
        }
      ],
      "name": "restockLays",
      "outputs": [],
      "stateMutability": "nonpayable",
      "type": "function"
    },
    {
      "inputs": [
        {
          "internalType": "uint256",
          "name": "value",
          "type": "uint256"
        }
      ],
      "name": "restockPizza",
      "outputs": [],
      "stateMutability": "nonpayable",
      "type": "function"
    },
    {
      "inputs": [
        {
          "internalType": "address",
          "name": "newOwner",
          "type": "address"
        }
      ],
      "name": "transferOwnership",
      "outputs": [],
      "stateMutability": "nonpayable",
      "type": "function"
    },
    {
      "inputs": [],
      "name": "unpause",
      "outputs": [],
      "stateMutability": "nonpayable",
      "type": "function"
    },
    {
      "inputs": [],
      "name": "withdrawMoney",
      "outputs": [],
      "stateMutability": "nonpayable",
      "type": "function"
    }
  ],
  "bytecode": "0x608060405234801561001057600080fd5b5061002d6100226100f360201b60201c565b6100fb60201b60201c565b33600660016101000a81548173ffffffffffffffffffffffffffffffffffffffff021916908373ffffffffffffffffffffffffffffffffffffffff16021790555073694aa1769357215de4fac081bf1f309adc325306600860006101000a81548173ffffffffffffffffffffffffffffffffffffffff021916908373ffffffffffffffffffffffffffffffffffffffff160217905550606460028001819055506064600260030181905550606460026000018190555060646002600101819055506101bf565b600033905090565b60008060009054906101000a900473ffffffffffffffffffffffffffffffffffffffff169050816000806101000a81548173ffffffffffffffffffffffffffffffffffffffff021916908373ffffffffffffffffffffffffffffffffffffffff1602179055508173ffffffffffffffffffffffffffffffffffffffff168173ffffffffffffffffffffffffffffffffffffffff167f8be0079c531659141344cd1fd0a4f28419497f9722a3daafe3b4186f6b6457e060405160405180910390a35050565b611dc4806101ce6000396000f3fe60806040526004361061012a5760003560e01c80638456cb59116100ab578063a8ec4c421161006f578063a8ec4c421461034c578063ac4460021461038c578063bb57d659146103a3578063d491ee24146103cc578063d895e3d0146103f5578063f2fde38b1461041e5761012a565b80638456cb591461029a57806389a6ad68146102b15780638a08f797146102cd5780638abe7239146102f85780638da5cb5b146103215761012a565b806354021971116100f257806354021971146101d457806354deedf2146102115780636c92c9211461023c5780636eebddf614610267578063715018a6146102835761012a565b806313effa0f1461012f578063171c70c11461015a57806338bd8258146101765780633d50cb97146101a15780633f4ba83a146101bd575b600080fd5b34801561013b57600080fd5b50610144610447565b6040516101519190611325565b60405180910390f35b610174600480360381019061016f919061137b565b61046d565b005b34801561018257600080fd5b5061018b6106c0565b60405161019891906113b7565b60405180910390f35b6101bb60048036038101906101b6919061137b565b6106cd565b005b3480156101c957600080fd5b506101d261091e565b005b3480156101e057600080fd5b506101fb60048036038101906101f6919061137b565b610943565b60405161020891906113b7565b60405180910390f35b34801561021d57600080fd5b50610226610a25565b60405161023391906113b7565b60405180910390f35b34801561024857600080fd5b50610251610a32565b60405161025e91906113b7565b60405180910390f35b610281600480360381019061027c919061137b565b610a3e565b005b34801561028f57600080fd5b50610298610c6e565b005b3480156102a657600080fd5b506102af610c82565b005b6102cb60048036038101906102c6919061137b565b610ca7565b005b3480156102d957600080fd5b506102e2610efa565b6040516102ef91906113b7565b60405180910390f35b34801561030457600080fd5b5061031f600480360381019061031a919061137b565b610f07565b005b34801561032d57600080fd5b50610336610f2e565b6040516103439190611325565b60405180910390f35b34801561035857600080fd5b50610373600480360381019061036e91906113fe565b610f57565b604051610383949392919061142b565b60405180910390f35b34801561039857600080fd5b506103a1610f87565b005b3480156103af57600080fd5b506103ca60048036038101906103c5919061137b565b6110a3565b005b3480156103d857600080fd5b506103f360048036038101906103ee919061137b565b6110ca565b005b34801561040157600080fd5b5061041c6004803603810190610417919061137b565b6110f1565b005b34801561042a57600080fd5b50610445600480360381019061044091906113fe565b611117565b005b600660019054906101000a900473ffffffffffffffffffffffffffffffffffffffff1681565b600660009054906101000a900460ff161561048757600080fd5b80600260010154116104ce576040517f08c379a00000000000000000000000000000000000000000000000000000000081526004016104c5906114cd565b60405180910390fd5b60018114610511576040517f08c379a000000000000000000000000000000000000000000000000000000000815260040161050890611539565b60405180910390fd5b61051b6005610943565b816105269190611588565b341015610568576040517f08c379a000000000000000000000000000000000000000000000000000000000815260040161055f90611616565b60405180910390fd5b6105726005610943565b8161057d9190611588565b34111561065a5761058e6005610943565b816105999190611588565b346105a49190611636565b60078190555060003373ffffffffffffffffffffffffffffffffffffffff166007546040516105d29061169b565b60006040518083038185875af1925050503d806000811461060f576040519150601f19603f3d011682016040523d82523d6000602084013e610614565b606091505b5050905080610658576040517f08c379a000000000000000000000000000000000000000000000000000000000815260040161064f906116fc565b60405180910390fd5b505b8060026001016000828254039250508190555080600160003373ffffffffffffffffffffffffffffffffffffffff1673ffffffffffffffffffffffffffffffffffffffff1681526020019081526020016000206001016000828254019250508190555050565b6000600260030154905090565b600660009054906101000a900460ff16156106e757600080fd5b8060028001541161072d576040517f08c379a000000000000000000000000000000000000000000000000000000000815260040161072490611768565b60405180910390fd5b60018114610770576040517f08c379a0000000000000000000000000000000000000000000000000000000008152600401610767906117d4565b60405180910390fd5b61077a6003610943565b816107859190611588565b3410156107c7576040517f08c379a00000000000000000000000000000000000000000000000000000000081526004016107be90611840565b60405180910390fd5b6107d16003610943565b816107dc9190611588565b3411156108b9576107ed6003610943565b816107f89190611588565b346108039190611636565b60078190555060003373ffffffffffffffffffffffffffffffffffffffff166007546040516108319061169b565b60006040518083038185875af1925050503d806000811461086e576040519150601f19603f3d011682016040523d82523d6000602084013e610873565b606091505b50509050806108b7576040517f08c379a00000000000000000000000000000000000000000000000000000000081526004016108ae906116fc565b60405180910390fd5b505b80600280016000828254039250508190555080600160003373ffffffffffffffffffffffffffffffffffffffff1673ffffffffffffffffffffffffffffffffffffffff1681526020019081526020016000206002016000828254019250508190555050565b61092661119a565b6000600660006101000a81548160ff021916908315150217905550565b600080600860009054906101000a900473ffffffffffffffffffffffffffffffffffffffff1673ffffffffffffffffffffffffffffffffffffffff1663feaf968c6040518163ffffffff1660e01b815260040160a060405180830381865afa1580156109b3573d6000803e3d6000fd5b505050506040513d601f19601f820116820180604052508101906109d791906118ed565b50505091505060006402540be400826109f09190611968565b670de0b6b3a76400008086610a059190611588565b610a0f9190611588565b610a199190611a0f565b90508092505050919050565b6000600260010154905090565b60006002800154905090565b600660009054906101000a900460ff1615610a5857600080fd5b8060026003015411610a9f576040517f08c379a0000000000000000000000000000000000000000000000000000000008152600401610a9690611a8c565b60405180910390fd5b610aa881610943565b341015610aea576040517f08c379a0000000000000000000000000000000000000000000000000000000008152600401610ae190611af8565b60405180910390fd5b60018114610b2d576040517f08c379a0000000000000000000000000000000000000000000000000000000008152600401610b2490611539565b60405180910390fd5b610b376001610943565b341115610c0857610b4781610943565b34610b529190611636565b60078190555060003373ffffffffffffffffffffffffffffffffffffffff16600754604051610b809061169b565b60006040518083038185875af1925050503d8060008114610bbd576040519150601f19603f3d011682016040523d82523d6000602084013e610bc2565b606091505b5050905080610c06576040517f08c379a0000000000000000000000000000000000000000000000000000000008152600401610bfd906116fc565b60405180910390fd5b505b8060026003016000828254039250508190555080600160003373ffffffffffffffffffffffffffffffffffffffff1673ffffffffffffffffffffffffffffffffffffffff1681526020019081526020016000206003016000828254019250508190555050565b610c7661119a565b610c806000611218565b565b610c8a61119a565b6001600660006101000a81548160ff021916908315150217905550565b600660009054906101000a900460ff1615610cc157600080fd5b8060026000015411610d08576040517f08c379a0000000000000000000000000000000000000000000000000000000008152600401610cff906114cd565b60405180910390fd5b60018114610d4b576040517f08c379a0000000000000000000000000000000000000000000000000000000008152600401610d4290611539565b60405180910390fd5b610d556002610943565b81610d609190611588565b341015610da2576040517f08c379a0000000000000000000000000000000000000000000000000000000008152600401610d9990611b64565b60405180910390fd5b610dac6002610943565b81610db79190611588565b341115610e9457610dc86002610943565b81610dd39190611588565b34610dde9190611636565b60078190555060003373ffffffffffffffffffffffffffffffffffffffff16600754604051610e0c9061169b565b60006040518083038185875af1925050503d8060008114610e49576040519150601f19603f3d011682016040523d82523d6000602084013e610e4e565b606091505b5050905080610e92576040517f08c379a0000000000000000000000000000000000000000000000000000000008152600401610e89906116fc565b60405180910390fd5b505b8060026000016000828254039250508190555080600160003373ffffffffffffffffffffffffffffffffffffffff1673ffffffffffffffffffffffffffffffffffffffff1681526020019081526020016000206000016000828254019250508190555050565b6000600260000154905090565b610f0f61119a565b8060026001016000828254610f249190611b84565b9250508190555050565b60008060009054906101000a900473ffffffffffffffffffffffffffffffffffffffff16905090565b60016020528060005260406000206000915090508060000154908060010154908060020154908060030154905084565b610f8f61119a565b60004711610fd2576040517f08c379a0000000000000000000000000000000000000000000000000000000008152600401610fc990611c04565b60405180910390fd5b6000600660019054906101000a900473ffffffffffffffffffffffffffffffffffffffff1673ffffffffffffffffffffffffffffffffffffffff164760405161101a9061169b565b60006040518083038185875af1925050503d8060008114611057576040519150601f19603f3d011682016040523d82523d6000602084013e61105c565b606091505b50509050806110a0576040517f08c379a000000000000000000000000000000000000000000000000000000000815260040161109790611c70565b60405180910390fd5b50565b6110ab61119a565b80600260030160008282546110c09190611b84565b9250508190555050565b6110d261119a565b80600260000160008282546110e79190611b84565b9250508190555050565b6110f961119a565b8060028001600082825461110d9190611b84565b9250508190555050565b61111f61119a565b600073ffffffffffffffffffffffffffffffffffffffff168173ffffffffffffffffffffffffffffffffffffffff160361118e576040517f08c379a000000000000000000000000000000000000000000000000000000000815260040161118590611d02565b60405180910390fd5b61119781611218565b50565b6111a26112dc565b73ffffffffffffffffffffffffffffffffffffffff166111c0610f2e565b73ffffffffffffffffffffffffffffffffffffffff1614611216576040517f08c379a000000000000000000000000000000000000000000000000000000000815260040161120d90611d6e565b60405180910390fd5b565b60008060009054906101000a900473ffffffffffffffffffffffffffffffffffffffff169050816000806101000a81548173ffffffffffffffffffffffffffffffffffffffff021916908373ffffffffffffffffffffffffffffffffffffffff1602179055508173ffffffffffffffffffffffffffffffffffffffff168173ffffffffffffffffffffffffffffffffffffffff167f8be0079c531659141344cd1fd0a4f28419497f9722a3daafe3b4186f6b6457e060405160405180910390a35050565b600033905090565b600073ffffffffffffffffffffffffffffffffffffffff82169050919050565b600061130f826112e4565b9050919050565b61131f81611304565b82525050565b600060208201905061133a6000830184611316565b92915050565b600080fd5b6000819050919050565b61135881611345565b811461136357600080fd5b50565b6000813590506113758161134f565b92915050565b60006020828403121561139157611390611340565b5b600061139f84828501611366565b91505092915050565b6113b181611345565b82525050565b60006020820190506113cc60008301846113a8565b92915050565b6113db81611304565b81146113e657600080fd5b50565b6000813590506113f8816113d2565b92915050565b60006020828403121561141457611413611340565b5b6000611422848285016113e9565b91505092915050565b600060808201905061144060008301876113a8565b61144d60208301866113a8565b61145a60408301856113a8565b61146760608301846113a8565b95945050505050565b600082825260208201905092915050565b7f4e6f7420656e6f7567682070697a7a6120696e2073746f636b00000000000000600082015250565b60006114b7601983611470565b91506114c282611481565b602082019050919050565b600060208201905081810360008301526114e6816114aa565b9050919050565b7f596f752063616e206f6e6c7920627579206f6e6520617420612074696d652021600082015250565b6000611523602083611470565b915061152e826114ed565b602082019050919050565b6000602082019050818103600083015261155281611516565b9050919050565b7f4e487b7100000000000000000000000000000000000000000000000000000000600052601160045260246000fd5b600061159382611345565b915061159e83611345565b92508282026115ac81611345565b915082820484148315176115c3576115c2611559565b5b5092915050565b7f596f75206d75737420706179206574686572207065722070697a7a6100000000600082015250565b6000611600601c83611470565b915061160b826115ca565b602082019050919050565b6000602082019050818103600083015261162f816115f3565b9050919050565b600061164182611345565b915061164c83611345565b925082820390508181111561166457611663611559565b5b92915050565b600081905092915050565b50565b600061168560008361166a565b915061169082611675565b600082019050919050565b60006116a682611678565b9150819050919050565b7f4661696c656420746f2073656e642072656d61696e7320210000000000000000600082015250565b60006116e6601883611470565b91506116f1826116b0565b602082019050919050565b60006020820190508181036000830152611715816116d9565b9050919050565b7f4e6f7420656e6f75676820646f6e75747320696e2073746f636b000000000000600082015250565b6000611752601a83611470565b915061175d8261171c565b602082019050919050565b6000602082019050818103600083015261178181611745565b9050919050565b7f596f752063616e206f6e6c7920627579203120617420612074696d6520210000600082015250565b60006117be601e83611470565b91506117c982611788565b602082019050919050565b600060208201905081810360008301526117ed816117b1565b9050919050565b7f596f75206d757374207061792065746865722070657220646f6e757400000000600082015250565b600061182a601c83611470565b9150611835826117f4565b602082019050919050565b600060208201905081810360008301526118598161181d565b9050919050565b600069ffffffffffffffffffff82169050919050565b61187f81611860565b811461188a57600080fd5b50565b60008151905061189c81611876565b92915050565b6000819050919050565b6118b5816118a2565b81146118c057600080fd5b50565b6000815190506118d2816118ac565b92915050565b6000815190506118e78161134f565b92915050565b600080600080600060a0868803121561190957611908611340565b5b60006119178882890161188d565b9550506020611928888289016118c3565b9450506040611939888289016118d8565b935050606061194a888289016118d8565b925050608061195b8882890161188d565b9150509295509295909350565b6000611973826118a2565b915061197e836118a2565b925082820261198c816118a2565b91507f800000000000000000000000000000000000000000000000000000000000000084146000841216156119c4576119c3611559565b5b82820584148315176119d9576119d8611559565b5b5092915050565b7f4e487b7100000000000000000000000000000000000000000000000000000000600052601260045260246000fd5b6000611a1a82611345565b9150611a2583611345565b925082611a3557611a346119e0565b5b828204905092915050565b7f4e6f7420656e6f756768204472696e6b7320696e2073746f636b000000000000600082015250565b6000611a76601a83611470565b9150611a8182611a40565b602082019050919050565b60006020820190508181036000830152611aa581611a69565b9050919050565b7f596f75206d7573742070617920657468657220706572206472696e6b00000000600082015250565b6000611ae2601c83611470565b9150611aed82611aac565b602082019050919050565b60006020820190508181036000830152611b1181611ad5565b9050919050565b7f596f75206d7573742070617920657468657220706572206c6179730000000000600082015250565b6000611b4e601b83611470565b9150611b5982611b18565b602082019050919050565b60006020820190508181036000830152611b7d81611b41565b9050919050565b6000611b8f82611345565b9150611b9a83611345565b9250828201905080821115611bb257611bb1611559565b5b92915050565b7f4e6f7420656e6f7567682066756e647320210000000000000000000000000000600082015250565b6000611bee601283611470565b9150611bf982611bb8565b602082019050919050565b60006020820190508181036000830152611c1d81611be1565b9050919050565b7f4e6f742041626c6520546f205472616e736665722046756e6473202100000000600082015250565b6000611c5a601c83611470565b9150611c6582611c24565b602082019050919050565b60006020820190508181036000830152611c8981611c4d565b9050919050565b7f4f776e61626c653a206e6577206f776e657220697320746865207a65726f206160008201527f6464726573730000000000000000000000000000000000000000000000000000602082015250565b6000611cec602683611470565b9150611cf782611c90565b604082019050919050565b60006020820190508181036000830152611d1b81611cdf565b9050919050565b7f4f776e61626c653a2063616c6c6572206973206e6f7420746865206f776e6572600082015250565b6000611d58602083611470565b9150611d6382611d22565b602082019050919050565b60006020820190508181036000830152611d8781611d4b565b905091905056fea2646970667358221220235e8c1b1f190a87507a5c2168943c516db82551b2fa87253c7aa87876eda5c064736f6c63430008120033",
  "linkReferences": {},
  "deployedLinkReferences": {}
}